:03000000020A9B56
:0C0A9B00787FE4F6D8FD75811B020AE2AA
:100931006D6F64653A636F6E74696E756F75732060
:10094100006D6F64653A72657665727369626C6594
:1009510020006D6F64653A6A6F6767696E67202072
:1009610020200073706565643A200020202020203B
:100971002020006D696E2073706565643A2039200E
:1009810020006D61782073706565643A2031202004
:100991000074696D653A2000207365632020202072
:1009A100006D61782074696D653A20392073656343
:1009B100006D696E2074696D653A2031207365633D
:1009C100004443204D6F746F7200436F6E74726FF9
:1009D1006C6C6572006D6F746F72207374617274E8
:1009E1000073706565643A20352020202020202086
:0C09F100006D6F746F722073746F7000E3
:100E04000210000A0212000A020A0000020800008E
:080E1400020E0064020C000054
:100E47008F16120E1DC2B1C2B2851680D2B0C2B0C3
:010E57002278
:100E58008F1B120E1DD2B1C2B2851B80D2B0C2B098
:010E68002267
:100E1D00C2B07580FFC2B1D2B2308706C2B0D2B0B7
:050E2D0080F7C2B022B5
:060D43007BFF7A097964D0
:060D49008B168A178918C1
:100D4F00120E328F19E4F51AE51AC39519501CAB20
:100D5F0016AA17A918120B27FF120E58740125187F
:0B0D6F00F518E43517F517051A80DDB4
:010D7A002256
:1009FD00E50B450A7028C2A5F50C750D017590FF24
:100A0D00E590F46003020A9AD2A0D2A4AF11AE1001
:100A1D00120DAAC2A4AF13AE12120DAA80E2E50BFD
:100A2D006401450A703CF50C750D017590FFE5905C
:100A3D00F4702CD2A0D2A2C2A3D2A4D2A6C2A5AFCA
:100A4D000FAE0E120D83120D7BD2A0C2A2D2A3C285
:100A5D00A6C2A5AF0FAE0E120D83120D7B80CFC2B5
:100A6D00A422E50B6402450A7023F50C750D017582
:100A7D0090FFE590B4FF16D2A0D2A4C2A5AF0FAEE1
:0E0A8D000E120D83D2A5C2A4120D7D80E522AB
:100DE800120DCB0509E5097002050820E007D2A21B
:0C0DF800C2A3D2A622C2A2D2A3C2A6228D
:100C5400120DCB7F80120E47050BE50B7002050ABF
:100C64006403450A7004F50AF50BE50B450A7008A0
:100C74007BFF7A097931801EE50B6401450A70080F
:100C84007BFF7A097942800EE50B6402450A7010F5
:100C94007BFF7A097953120D497F0F7E00120D8371
:010CA400222D
:100CF500120DCB7FC0120E47C3E513940EE5129477
:100D0500005029E5111511700215100513E5137032
:100D1500020512242BF515E43512F514120D43AF17
:100D250015120E587BFF7A09796C800EE513640E57
:0D0D3500451270097BFF7A097974120D498F
:010D4200228E
:100CA500120DCB7FC0120E47D3E5139406E51294BF
:100CB50000402B0511E51170020510E513151370A1
:100CC500021512E513242BF515E43512F514120D52
:100CD50043AF15120E587BFF7A09796C800EE51328
:0F0CE5006406451270097BFF7A097983120D4965
:010CF40022DD
:100BF500120DCB7FC0120E47C3E50F94B4E50E94DA
:100C050000503A7414250FF50FE4350EF50EFEAFBE
:100C15000F7C007D14120B408E148F157430251532
:100C2500F515E43514F5147BFF7A097992120D490F
:100C3500AF15120E587BFF7A097999800EE50F647E
:0E0C4500B4450E70097BFF7A0979A2120D49A1
:010C5300227E
:100B9500120DCB7FC0120E47D3E50F9414E50E94CA
:100BA50000403B74EC250FF50F74FF350EF50EFE76
:100BB500AF0F7C007D14120B408E148F15743025F9
:100BC50015F515E43514F5147BFF7A097992120DA4
:100BD50049AF15120E587BFF7A097999800EE50FFA
:0F0BE5006414450E70097BFF7A0979B2120D492D
:010BF40022DE
:100DCB00E4FFFEE4FDFC0DBD00010CBC03F8BDE827
:0C0DDB00F50FBF00010EEF64324E70E710
:010DE70022E9
:080D7B00D2A5C2A07F147E0086
:100D8300758BAF758D3CD28EE4FDFCD3ED9FEC9E4D
:100D93005012308FFDC28F758BAF758D3C0DBD002A
:060DA300010C80E7C28E86
:010DA9002227
:100DAA00758C9B758A9BD28CE4FDFCC3ED9FEC9EEF
:100DBA00500C308DFDC28D0DBD00010C80EDC28C32
:010DCA002206
:1008000075891275A0E0E4F580F5B07F3C120E47C3
:100810007F0E120E477F01120E477F84120E477B18
:10082000FF7A0979C2120D497FC3120E477BFF7A06
:100830000979CB120D497590FFE590F460FBAF90FC
:10084000EF2481700302091524C0700302090824F3
:10085000E070030208FB24F070030208EE24F87035
:10086000030208E124FC606C24FE6044146003026F
:100870000923120DCB7F01120E477BFF7A0979D62F
:10088000120D497F327E00120D837F80120E477B4E
:10089000FF7A097931120D497FC0120E477BFF7A2A
:1008A0000979E2120D49D2A0C2A1D2A2C2A38070DE
:1008B000120DCBE4F50CF50D7F01120E477BFF7A8C
:1008C0000979F2120D49C2A0D2A1C2A2C2A3C2A448
:1008D000D2A5804F120C54E50D6401450C70448084
:1008E0003F120DE8E50D6401450C70378032120CA3
:1008F000A5E50D6401450C702A8025120CF5E50D67
:100900006401450C701D8018120BF5E50D6401455E
:100910000C7010800B120B95E50D6401450C7003F3
:100920001209FDE50D6401450C600302083602085A
:010930003E88
:100AA700020800E493A3F8E493A34003F68001F25D
:100AB70008DFF48029E493A3F85407240CC8C33350
:100AC700C4540F4420C8834004F456800146F6DF1F
:100AD700E4800B0102040810204080900E04E47E9D
:100AE700019360BCA3FF543F30E509541FFEE49314
:100AF700A360010ECF54C025E060A840B8E493A3DB
:100B0700FAE493A3F8E493A3C8C582C8CAC583CA05
:100B1700F0A3C8C582C8CAC583CADFE9DEE780BEBD
:010E1C0000D5
:100B2700BB010689828A83E0225002E722BBFE02CC
:090B3700E32289828A83E49322FF
:100B4000BC000BBE0029EF8DF084FFADF022E4CC99
:100B5000F875F008EF2FFFEE33FEEC33FCEE9DEC62
:100B6000984005FCEE9DFE0FD5F0E9E4CEFD22EDA8
:100B7000F8F5F0EE8420D21CFEADF075F008EF2FF2
:100B8000FFED33FD4007985006D5F0F222C398FDE3
:050B90000FD5F0EA2280
:100E3200E4FFFE120B27600C0FEF70010E09E97040
:050E4200F20A80EF221E
:00000001FF
